:020000040800F2
:10000000D0090020DD230008F1020008F3020008F7
:10001000F7020008FB020008FF02000800000000D1
:1000200000000000000000000000000003030008C2
:10003000050300080000000007030008090300088A
:10004000F7230008F7230008F7230008F723000828
:10005000F7230008F7230008F7230008F723000818
:10006000F7230008F7230008F7230008F723000808
:10007000F7230008F7230008F7230008F7230008F8
:10008000F7230008F7230008F7230008F7230008E8
:10009000F7230008F7230008F7230008F7230008D8
:1000A000F7230008F7230008F7230008F7230008C8
:1000B000F7230008B5020008F7230008F72300081B
:1000C000F7230008F7230008F7230008F7230008A8
:1000D000F72300086F200008B72200088B210008D2
:1000E000F7230008F7230008F7230008F723000888
:1000F000F7230008F7230008F7230008F723000878
:10010000F7230008F7230008F7230008F723000867
:10011000F7230008F7230008F7230008F723000857
:10012000F7230008F7230008F7230008F723000847
:1001300000F002F800F04AF80AA090E8000C8244AF
:100140008344AAF10107DA4501D100F03FF8AFF28C
:10015000090EBAE80F0013F0010F18BFFB1A43F0A5
:1001600001031847AC620000CC6200000A4410F89A
:10017000014B14F00F0508BF10F8015B240908BFFC
:1001800010F8014B6D1E05D010F8013B6D1E01F8F3
:10019000013BF9D1641E03D0641E01F8015BFBD161
:1001A0009142E4D37047000000230024002500267C
:1001B000103A28BF78C1FBD8520728BF30C148BFCA
:1001C0000B6070471FB51FBD10B510BD04F066F879
:1001D0001146FFF7F7FF00F009F804F084F803B4C4
:1001E000FFF7F2FF03BC01F0F5FE000001F02DF86F
:1001F00050E001F07DF828480068401C264908605E
:10020000084600680A2803D024480078012841D114
:1002100000202149086021490870682020490870A1
:100220002048007848701F48407888701D488078C2
:10023000C8701C48C07808711A480079487119487C
:100240004079887117488079C8711648C07908725A
:100250001448007A487269208872002012490860A8
:1002600012E00F48104A1268815C104802F000FE4C
:1002700000BF40210D4802F069FE0128F9D10A486B
:100280000068401C08490860074800680849096878
:100290008842E6D3ADE70000000000200E010020F8
:1002A0009402002048020020040000200038014091
:1002B000080000201548008800F00100B0B14FF69A
:1002C000FE70124908801248007800B97047114842
:1002D0000068401C0F4908600F480078401C0E4918
:1002E00008700E480078401C0C49087000BFEDE70C
:1002F000704700BFFEE700BFFEE700BFFEE700BF9C
:10030000FEE77047704770477047000010040040D8
:10031000C80000200401002010000020110000206F
:100320000CB50020019000906C48006840F48030CB
:100330006A49086000BF6948006800F40030009016
:100340000198401C0190009818B90198B0F5A06F71
:10035000F1D16248006800F4003010B10120009033
:1003600001E0002000900098012843D15C4800681B
:1003700040F010005A4908600846006820F0030069
:1003800008600846006840F0020008605348406872
:10039000524948600846406848600846406840F452
:1003A000806048600846406820F47C104860084639
:1003B000406840F4E81048600846006840F08070EB
:1003C000086000BF4548006800F000700028F9D0C0
:1003D0004248406820F003004049486008464068B1
:1003E00040F00200486000BF3C48406800F00C004C
:1003F0000828F9D10CBD10B5FFF792FF10BD10B55C
:100400003648006840F001003449086008464068FA
:10041000344908403149486008460068324908407C
:100420002E4908600846006820F4802008600846CD
:10043000406820F4FE0048604FF41F008860FFF71A
:10044000DAFF4FF000602949086010BD10B50021A7
:1004500000200022214B5B6803F00C0121B104292C
:1004600006D0082928D107E0214B224C236027E041
:100470001F4B204C236023E0184B5B6803F4701083
:10048000164B5B6803F48032022303EB904022B9E1
:10049000194B4343174C23600DE0104B5B6803F48A
:1004A000003323B1144B4343124C236003E0104B41
:1004B0004343104C236003E00D4B0E4C236000BF00
:1004C00000BF064B5B68C3F303130C4CE15C094BA4
:1004D0001B68CB40074C236010BD00000010024099
:1004E000002002400000FFF8FFFFF6FE08ED00E0EC
:1004F00000127A001400002000093D0018000020BE
:10050000F948FA49C860FA4808614FF082404861EA
:10051000F848F949C860002008614861F748F8497F
:10052000C860F34808614FF07C504861F548F649CF
:10053000C86000200861486170472DE9FC5F0546EE
:100540000E46C5F1800007B2C6F1800004B2EF4844
:100550000088002862D0EE480068EE49086008462E
:100560000168ED48006805F0B9FDEC490860E14913
:10057000EA48006805F076FD02D2DE48E7490860E7
:10058000E749E648006805F06DFC02D2E448E3491B
:100590000860E2480168E348006805F0CBFAE149E9
:1005A0000860E1480168DD48006805F097FDDF4913
:1005B0000860DA480068DC490860CF494869DB49CF
:1005C000096805F083FC8146CB490869D54909686B
:1005D00005F07CFC8246C849C868D049096805F026
:1005E00075FC8346514605F0A5FA8046494605F05C
:1005F000A1FACF490860CF49CD48006805F032FD27
:1006000002D2CC48CA490860CB49C948006805F005
:1006100029FC13D2C848C64908600FE04FF07E514C
:10062000BD48006805F05AFDB94908600020BB4983
:100630000860384605F0EAFBBD490860BF480088FD
:10064000A4EB800000B2BE4908800846B0F9000063
:1006500010F1080F07DD0846B0F90000082802DA9B
:100660000020088015E0B648B0F90000002805DD3C
:10067000B3480088083800B2B1490880B048B0F9E2
:100680000000002805DAAE480088083000B2AC4906
:100690000880AC480088AA490988084400B2A949E2
:1006A00008800846B0F90000B0F5FA7F02DD4FF48B
:1006B000FA700880A348B0F9000010F5FA7F03DA59
:1006C0004FF60C609F4908809D4800889E49098824
:1006D000401A00B29D4908809948B0F900009A4933
:1006E00008809A48B0F9000005F090FB82468448E3
:1006F0004169504605F0EAFB81469248B0F9000096
:1007000005F084FB00907E480169009805F0DEFB4F
:1007100082468B48B0F9000005F078FB00907848DD
:10072000C168009805F0D2FB8346514605F002FAF5
:100730004946019005F0FEF9804605F02BFB04B216
:100740006E2C00DD6E2414F16E0F01DA6FF06D0473
:10075000204605F05BFB81467D48B0F9000005F0BE
:1007600055FB82467B497248006805F0AFFB834623
:10077000514605F0DFF98046494605F0AFFC764961
:100780000860204605F042FB81467148B0F9000040
:1007900005F03CFB82466F496548006805F096FB12
:1007A0008346514605F0C6F98046494605F0C2F930
:1007B0006A490860BDE8FC9F2DE9FF4F83B083467E
:1007C0000D461E46DDE91078CBF180000FFA80F966
:1007D00009FB05F00A2190FBF1F0029005F016FBF1
:1007E0005F49086009FB05F00A2190FBF1F00290D7
:1007F00005F00CFB5B49086009FB05F00A2190FB42
:10080000F1F0029005F002FB5749086009FB05F082
:100810000A2190FBF1F0029005F0F8FA53490860C4
:100820000598C0F180000FFA80FA0AFB06F00A2151
:1008300090FBF1F0019005F0E9FA02904848016858
:10084000029805F077F9464908600AFB06F00A218C
:1008500090FBF1F0019005F0D9FA0290414801684F
:10086000029805F030FC3F4908600AFB06F00A21B7
:1008700090FBF1F0019005F0C9FA02903A48016846
:10088000029805F057F9384908600AFB06F00A217A
:1008900090FBF1F0019005F0B9FA0290334801683D
:1008A000029805F010FC31490860042F01D1802422
:1008B0000EE0032F02D16FF07F0409E0022F01D177
:1008C000402405E0012F02D16FF03F0400E0002436
:1008D0002748B0F90000201A0C284BDD2448008876
:1008E0000C3004B253E00000CDCC9C403C01002011
:1008F0000AD7A33C0000A0415C010020CDCC8C3F76
:100900007C010020666606409C010020EC0000206F
:100910007800002074000020F00000204400002037
:100920000000A0C148000020500000204C00002022
:100930005400002000004842000048C25800002037
:100940005A0000205C000020600000205E000020B3
:100950007000002000004040380000203C000020D3
:10096000280000202C00002030000020340000204F
:100970007E0000202848B0F90000201A10F10C0F6A
:1009800004DA254800880C3804B200E000BF224891
:10099000048004FB08F00A2190FBF1F0019005F0BF
:1009A00035FA02901D480168029805F0C3F81B490A
:1009B000086004FB08F00A2190FBF1F0019005F0BB
:1009C00025FA029016480168029805F07CFB14494C
:1009D000086004FB08F00A2190FBF1F0019005F09B
:1009E00015FA02900F480168029805F06CFB0D495A
:1009F000086004FB08F00A2190FBF1F0019005F07B
:100A000005FA029008480168029805F093F8064933
:100A1000086007B0BDE8F08F7E00002028000020AD
:100A20002C00002030000020340000202DE9F05F71
:100A3000FE48007A77287DD1FC484078512853D170
:100A4000FA498978F94AD27841EA022004F07FFC19
:100A500080460022F64B04F0C5FA06460022F54B0C
:100A600004F02CFD0446F44AF44B04F027FD8246C2
:100A700004F0CAF9F2490860EC490979EB4A527965
:100A800041EA022004F063FC06460022E84B04F031
:100A9000A9FA04460022E74B04F010FD8246E64A1C
:100AA000E64B04F00BFD804604F0AEF9E549086022
:100AB000DE498979DD4AD27941EA022004F047FC17
:100AC00080460022DA4B04F08DFA06460022D94B0C
:100AD00004F0F4FC0446D84AD84B04F0EFFC8246FC
:100AE00004F092F9D8490860D0484078522846D19D
:100AF000CE498978CD4AD27841EA022004F027FC19
:100B000080460022CA4B04F06DFA06460022CF4B05
:100B100004F0D4FC044604F077F9CD490860C349D9
:100B20000979C24A527941EA022004F010FC804659
:100B3000002200E0A5E0BE4B04F054FA0646002275
:100B4000C24B04F0BBFC044604F05EF9C1490860E6
:100B5000B6498979B54AD27941EA022004F0F7FB17
:100B600080460022B24B04F03DFA06460022B74B05
:100B700004F0A4FC044604F047F9B7490860AB4808
:100B8000407853287DD1A9498978A84AD27841EA8A
:100B9000022004F0DCFB06460022A54B04F022FAFA
:100BA00080460022AD4B04F089FC044604F02CF989
:100BB000AB490860AB49AA48006805F053FA06D271
:100BC000A949A748006805F089FAA549086097492E
:100BD0000979964A527941EA022004F0B8FB80462E
:100BE0000022934B04F0FEF9064600229B4B04F0D2
:100BF00065FC044604F008F99C49086099499B4843
:100C0000006805F02FFA06D297499848006805F069
:100C100065FA9649086085498979844AD27941EA1A
:100C2000022004F094FB06460022814B04F0DAF91E
:100C300004460022894B04F041FC804604F0E4F8AD
:100C40008B49086087498A48006805F00BFA06D28C
:100C500085498748006805F041FA8549086085495B
:100C60007F48006804F066FF7D49086081497F483D
:100C7000006804F05FFF7D4908607A497C4800689D
:100C800000E066E104F056FF794908607A48008880
:100C900001286CD172480068784908600A4651689A
:100CA000106805F01BFA0446754905F0DBF909D315
:100CB000724A5168106805F011FA0446714905F04E
:100CC000D1F803D26D4840686C4908606B480068F1
:100CD0006A494860084600686149086063480068DE
:100CE000694908600A465168106805F0F7F904463A
:100CF000634905F0B7F909D3634A5168106805F0F4
:100D0000EDF904465F4905F0ADF803D25E4840684E
:100D10005D4908605C4800685B49486008460068B7
:100D20005249086052480068584908600A465168AC
:100D3000106805F0D3F90446514905F093F909D339
:100D4000524A5168106805F0C9F904464D4905F04A
:100D500089F803D24D4840684C4908604B48006808
:100D60004A49486008460068414908600BE03C4831
:100D70000068424948603D480068434948603C4833
:100D8000006842494860364801683A4805F0A6F9CB
:100D9000044604F0FFFF00B23D4908803D49334856
:100DA000006805F093F8044604F0F4FF00B2C8218F
:100DB00090FBF1F03849087036492C48006805F07E
:100DC00085F8044604F0E6FF00B2C82190FBF1F27A
:100DD00001FB1200304948702E492148006805F097
:100DE00075F8044604F0D6FF00B2C82190FBF1F07C
:100DF0002949887027491A48006805F067F80446B1
:100E000004F0C8FF00B2C82190FBF1F201FB120010
:100E10002149C8701F491648006805F057F8044674
:100E200004F0B8FF00B2C82138E000008A020020B8
:100E30000000E040000030409A9999999999234028
:100E400080000020840000208800002000409F4097
:100E50008C0000209000002094000020008066405C
:100E600098000020000034430000B4439C000020A0
:100E7000A00000200000B442EA000020BC010020D5
:100E80000000A0410000A0C1E40100200C020020ED
:100E9000580000200000C8424802002090FBF1F0FA
:100EA0002D4908712D492E48006805F00FF80446B9
:100EB00004F070FF00B2C82190FBF1F201FB1200B8
:100EC00025494871487804F0B9FF0646234904F0E3
:100ED0009FFE04462049087804F0B0FF06464FF014
:100EE000804104F0F3FF0546214604F023FE1D492E
:100EF00008601949C87804F0A1FF0646174904F0B4
:100F000087FE04461449887804F098FF06464FF09F
:100F1000804104F0DBFF0546214604F00BFE124938
:100F200008600D49487904F089FF06460B4904F032
:100F30006FFE04460849087904F080FF06464FF02A
:100F4000804104F0C3FF0546214604F0F3FD074944
:100F50000860BDE8F09F0000480200200000C84281
:100F6000A0000020800000208400002088000020D5
:100F700002460B46D01A81B2002901DD08467047AF
:100F8000002902DA484280B2F9E70020F7E78148F9
:100F90008079592879D17F4840787F4908807D48F9
:100FA00080787E4908807B48C0787D4908807948F0
:100FB00000797C490880784800887B490988401A74
:100FC0000C2805DD784800880C307349088011E052
:100FD0007148008874490988401A10F10C0F05DA2D
:100FE000714800880C386C49088003E06A48008822
:100FF000694908806A4800886C490988401A0228B3
:1010000005DD6A480088801C6549088011E0644855
:10101000008866490988401A10F1020F05DA634812
:101020000088801E5E49088003E05D4800885C49B6
:1010300008805C4800885E490988401A022805DD5E
:101040005B480088801C5749088011E0554800889B
:1010500057490988401A10F1020F05DA54480088F0
:10106000801E5049088003E04E4800884D490880A2
:101070004A4800884F490988401A042806DD4D482F
:101080000088001D4549088012E081E0434800883F
:1010900048490988401A10F1040F05DA45480088CC
:1010A000001F3E49088003E03C4800883B49088017
:1010B000394800883C490880394800883B49088005
:1010C000384800883A4908803448008839490880FF
:1010D00030484079102802D10120374908802D4836
:1010E00040790E2802D100203349088029484079F0
:1010F0000D2802D1012031490880264840790F2867
:1011000002D100202D49088022484079092803D1C6
:1011100004202B4908801AE01E4840790A2803D190
:1011200003202749088012E01A4840790B2803D190
:101130000220234908800AE0164840790C2803D190
:1011400001201F49088002E000201D490880114845
:101150004079052803D102201A4908800AE00D4889
:101160004079072803D101201649088002E00020B9
:101170001449088007484079082802D10120124903
:10118000088004484079062802D100200E490880D2
:101190007047000076020020DA000020D80000200E
:1011A000DE000020DC000020A8000020AA000020B3
:1011B000AC000020AE000020EE000020EA0000207D
:1011C000E0000020E6000020EC00002008B54FF40D
:1011D000A06001F023F91D208DF8000002208DF899
:1011E00001008DF8020001208DF80300684601F02F
:1011F0001AF925208DF8000001208DF8010000204B
:101200008DF8020001208DF80300684601F00BF90B
:1012100027208DF8000000208DF8010001208DF8B6
:1012200002008DF80300684601F0FDF826208DF8D5
:10123000000000208DF8010001208DF802008DF8DB
:101240000300684601F0EFF808BD1FB5FFF7BEFFC9
:1012500001F05AF84FF4E13000F0CBFE4FF4E130EA
:1012600000F04FFF4FF4E13000F0E3FF00F088FDA5
:1012700000F002F900F04FFAFFF742F90020009069
:1012800001900290034602460146039000F0A1FD42
:101290000120644908700020634908801FBD70B5B3
:1012A0000546022D01D1042404E0012D01D16C1F5B
:1012B00000E00024204604F0A9FD06465B480168D2
:1012C000304604F037FC59490860594957480068CE
:1012D00004F0C8FE02D256485449086055495348A4
:1012E000006804F0BFFD02D252485049086070BD4A
:1012F0002DE9FF474FF480504F490860FFF796FBF8
:10130000FFF745FE00F077FA4C480088FFF7C7FF6B
:101310000A204B4909881423CDE900104948028866
:10132000194649480088FFF747FA042247480188D0
:1013300047480088FFF701F94648008848B900206F
:10134000009001900290034602460146039000F08F
:1013500040FD4048008880B33448006804F01AFD1E
:101360000FFA80FA3C48006804F014FD04B23B48D0
:10137000006804F00FFD05B23948006804F00AFD6A
:1013800006B23848006804F005FD07B23648006828
:1013900004F000FD0FFA80F83448006804F0FAFC0D
:1013A0000FFA80F9002033463A464146CDE9014A1A
:1013B00000950390484600F00CFD1D491B4800684D
:1013C00004F050FE02D21A4818490860194917481B
:1013D000006804F047FD02D216481449086013481B
:1013E000006804F0F3FC224908802248008840F29B
:1013F000712148434FF6FF7101EAC0101C49091DD5
:1014000008800A2000F0BDFF4FF480500A49091DF2
:101410000860BDE8FF874FF4005007490860091DC8
:1014200008607047C8000020EC000020CC000020BD
:101430000080ED4400808944100C0140E60000204B
:10144000E0000020DE000020DC000020DA000020A8
:10145000D8000020EA0000203C00002038000020D6
:1014600034000020300000202C0000202800002044
:101470003C040040EE00002008B50121082001F0E6
:1014800057FB4FF44040ADF8000010208DF80300EA
:1014900003208DF802006946FE4801F08DF8012016
:1014A000FD490860FD49C1F8B80108BD10B5F9480B
:1014B000001D006820F07060F649091D08600846AC
:1014C000006840F0407008600120F349091F08607F
:1014D000F249C1F8BC01042000F02FFF0020EE49C2
:1014E000091F0860042000F028FF0020EB49C1F824
:1014F000BC0110BD10B5E748001D006820F0706009
:10150000E449091D08600846006840F04070086022
:101510000020E1490860E149C1F8B801042000F069
:101520000CFF0120DC490860042000F006FF0120C8
:10153000DA49C1F8B80110BD10B50024D548001D26
:10154000006820F07060D349091D086008460068F3
:1015500040F0006008600120CF49091F086000F0DA
:10156000ECFE0120CD49C1F8BC0100F0E6FE07E029
:10157000601CC4B2FA2C03DDFFF7BCFF012010BDD4
:10158000C548843800680028F2D1C349086000BF0C
:10159000F5E710B50020C0490860BE48001D00688E
:1015A00020F07060BB49091D08600846006840F0E3
:1015B000407008600020B949C1F8B801022000F06D
:1015C000BCFE0120B4490860022000F0B6FE0020F5
:1015D000B249C1F8BC0110BD10B50020AE49086089
:1015E000AC48001D006820F07060AA49091D086021
:1015F0000846006840F0407008600120A749C1F823
:10160000B801022000F099FE0120A34908600220E1
:1016100000F093FE0020A149C1F8BC0110BD70B5D7
:1016200004469C48001D006820F070609949091D1F
:1016300008600846006840F0407008600020964945
:101640000860002517E0E0099349091F086060065B
:10165000040E022000F071FE01209049C1F8BC0187
:10166000022000F06AFE00208B490860022000F092
:1016700064FE681CC5B2082DE5DB70BD70B505467B
:1016800000248448001D006820F070608149091D15
:1016900008600846006840F000600860002616E018
:1016A00000207D490860022000F047FE01207B49B0
:1016B000C1F8BC016006040E77488438006808B1A0
:1016C000601CC4B2012000F038FE701CC6B2082EA7
:1016D000E6DB15B9FFF780FF01E0FFF75AFF204670
:1016E00070BD10B50446FFF7E1FEEE20FFF797FF4F
:1016F000FFF722FF2046FFF792FFFFF71DFFFFF7DE
:10170000F9FE10BD10B5FFF7D1FEEF20FFF787FF00
:10171000FFF712FF10BD70B51E20FFF7E2FF052096
:1017200000F02FFE00241BE0A02101EB4401C8B211
:10173000FFF7D7FF022000F024FEFFF7E3FF0120B0
:10174000FFF79CFF05460020FFF798FF0646FFF7CE
:10175000D1FE46EA0520524921F81400601CC4B2AB
:10176000082CE1DD70BD70B55820FFF7BAFF0A20E4
:1017700000F007FE0020FFF7B4FF022000F001FE9A
:10178000FFF7C0FF0120FFF779FF04460120FFF7B4
:1017900075FF06460020FFF771FF0546FFF7AAFE1A
:1017A000200440EA062028433E49086070BD70B519
:1017B0004820FFF796FF0A2000F0E3FD0020FFF726
:1017C00090FF022000F0DDFDFFF79CFF0120FFF7F6
:1017D00055FF04460120FFF751FF06460020FFF7A2
:1017E0004DFF0546FFF786FE200440EA0620284309
:1017F0002D49086070BD2DE9F04D96B0FFF7D7FF79
:10180000FFF7B1FF274800682849A0EB010B002231
:10181000274B1046890502F0F5FDCDE90A0146F691
:10182000AC710BFB01F003F092FDCDE90801DDE99D
:101830000A2303F0D7FB00221E4BCDE90E01104610
:101840004FF0804102F0DEFD00221B4BCDE90A0182
:1018500003F034FECDE90C01DDE90E2303F006FBB5
:10186000CDE9100104F0B0FCCDE912010022134BC8
:1018700010464FF0804102F0C5FDCDE90A0146F661
:10188000FE110BFB01F003F062FDCDE90801DDE97B
:101890000A2315E0000C0140BC8121420080214256
:1018A00052020020FC000020F800002000B97E0059
:1018B0000000204000002E40A01AE64000001C401E
:1018C00003F090FB0022A64BCDE90E0110464FF02D
:1018D000804102F097FD0022A24BCDE90A0103F0FE
:1018E000EDFDCDE90C01DDE90E2303F0BFFACDE9F2
:1018F000100104F069FCCDE9140100229A4B104656
:101900004FF0804102F07EFDCDE90C0147F2460127
:101910000BFB01F003F01BFDCDE90A01DDE90C230F
:1019200003F060FB0022914BCDE90E0103F09EFA1B
:10193000CDE9100103F0AEFC8246BAF5FA6F44DA45
:1019400000228B4B1046D90302F05CFDCDE90E015D
:101950000BEB4B0101FB0BF003F0F9FCCDE90C01A3
:10196000DDE90E2303F03EFBCDE9100104F02CFC71
:101970008046AAF5FA6101EB4101AAF5FA6201FB82
:1019800002F000EBD0714C10E517114601EB81011C
:1019900001FB02F0C11700EB5171CE10F71775482B
:1019A000824537DA0AF2DC50C0EBC0000AF2DC51A3
:1019B0004843041945EBE07508464FEA800000FBF8
:1019C00001F0861947EBE07724E000226A4B1046CD
:1019D000D90302F017FDCDE90E01CBEBCB0101FBE2
:1019E0000BF003F0B4FCCDE90C01DDE90E2303F0AC
:1019F000F9FACDE9100104F0E7FB8046AAF5FA6197
:101A00000A4601FB02F0C11700EB11710C11E5173A
:101A100000263746BAEB080ADDE91410091B60EB13
:101A20000500CDE91410DDE91210891B60EB0700F9
:101A3000CDE912100022514B10464FF0804102F0C8
:101A4000E1FCCDE90C01DDE9140103F097FC002273
:101A50004B4BCDE908011046990302F0D3FCCDE9C8
:101A60000401484800230268DDE9120CA2FB001EB5
:101A700003FB00E002FB0C00CDE9001008460199D1
:101A800003F07CFCCDE90201DDE9042303F0AAFAAE
:101A9000CDE90601DDE9082303F036FFCDE90A01AF
:101AA000DDE90C2303F09EFA0022374BCDE90E014D
:101AB00003F0DCF9CDE9100103F01CFC33490860A8
:101AC0000846006803F0ABFC314A324BCDE90E0109
:101AD00003F088FACDE9100103F096F92E49086069
:101AE0000846006803F0FAFF2C4A2D4BCDE90E01A1
:101AF00003F00AFFCDE9100103F086F926490860DA
:101B000028492548006804F0E1F92349086025497F
:101B10002148006804F0DAF92349086023491E4887
:101B2000006804F0D3F9119004F034F900B2C82130
:101B300090FBF1F01E4988711C491748006804F0B9
:101B4000C5F9119004F026F900B2C82190FBF1F21A
:101B500001FB12001649C87116B0BDE8F08D0000F7
:101B600000003040A0BAE3400000374000409F40F2
:101B70000080404024FAFFFF0080424000002E40D9
:101B800000003540F8000020000034400001002033
:101B90008048BF7D85B5C340F4000020547424976D
:101BA000FF90E83F00002041F00000200000C84204
:101BB0004802002000B587B00121084600F0C5FFAB
:101BC00044F61F60ADF814004720ADF81000002067
:101BD000ADF81600ADF8120004A94FF0804001F0F6
:101BE0000BFD6020ADF800000120ADF802000020E0
:101BF000ADF80600ADF8080069464FF0804001F0EE
:101C000038FD0821C80602F083F969464FF080408C
:101C100001F071FD0821C80602F083F969464FF012
:101C2000804001F0B5FD0821C80602F087F9694639
:101C30004FF0804001F0F7FD0821C80602F087F957
:101C40000121880702F034F90121880702F030F8F9
:101C500007B000BD00B587B00121022000F075FF7C
:101C600044F61F60ADF814004720ADF810000020C6
:101C7000ADF81600ADF8120004A9CF4801F0BCFC85
:101C80006020ADF800000120ADF802000020ADF8A2
:101C90000600ADF808006946C74801F0EAFC0821D3
:101CA000C54802F035F96946C34801F024FD082112
:101CB000C14802F036F96946BF4801F069FD0821C4
:101CC000BD4802F03BF96946BB4801F0ACFD082174
:101CD000B94802F03CF90121B74802F0E9F80121C6
:101CE000B54801F0E5FF07B000BD00B587B00121A0
:101CF000042000F02AFF44F61F60ADF814004720CE
:101D0000ADF810000020ADF81600ADF8120004A9DF
:101D1000AA4801F071FC6020ADF800000120ADF888
:101D200002000020ADF80600ADF808006946A3489F
:101D300001F09FFC0821A14802F0EAF869469F489B
:101D400001F0D9FC08219D4802F0EBF869469B4858
:101D500001F01EFD0821994802F0F0F86946974805
:101D600001F061FD0821954802F0F1F80121934846
:101D700002F09EF80121914801F09AFF07B000BDE2
:101D800008B50121082000F0D3FE40F2C330ADF8C1
:101D9000000003208DF8020018208DF8030069462A
:101DA000874800F009FC0121042000F0C1FEC0209A
:101DB000ADF8000003208DF8020018208DF8030014
:101DC0006946804800F0F8FBFFF78FFFFFF742FFFE
:101DD00008BD2DE9F04106ACF0CCB0F5E17F01DDA6
:101DE0004FF4E17010F5E17F00DA7748B1F5E17F5B
:101DF00001DD4FF4E17111F5E17F00DA7249B2F5CE
:101E0000E17F01DD4FF4E17212F5E17F00DA6E4A05
:101E1000B3F5E17F01DD4FF4E17313F5E17F00DA03
:101E2000694BB4F5E17F01DD4FF4E17414F5E17F16
:101E300000DA654CB5F5E17F01DD4FF4E17515F58C
:101E4000E17F00DA604D00F2DC5CDFF8708108F1C0
:101E50003408A8F800C001F2DC5C08F10408A8F816
:101E600000C002F2DC5C08F10408A8F800C003F22C
:101E7000DC5C08F10408A8F800C004F2DC5CDFF8C0
:101E8000388108F13408A8F800C005F2DC5C08F1DC
:101E90000408A8F800C0BDE8F081B0F5FA7F01DDC4
:101EA0004FF4FA7010F5C87F01DA4748323000F27B
:101EB000DC514FF0804291877047B0F5FA7F01DD29
:101EC0004FF4FA7010F5C87F01DA3F48323000F263
:101ED000DC513E4A1180704700B587B001214FF4B4
:101EE000017000F025FE4FF4004000F085FD102049
:101EF000ADF8040000208DF8070001A9314800F07A
:101F00005BFB334801F07CF8002002908DF80C0058
:101F10008DF80D004FF46020049000200590012002
:101F20008DF8180002A92A4801F091F801212848EB
:101F300001F0B9F8264801F0D8F800BF244801F0B4
:101F4000D9F80028FAD1224801F0DEF800BF204875
:101F500001F0DFF80028FAD107B000BD10B5044643
:101F60000723012221461A4801F009F901211848E6
:101F700001F0D9F800BF0221154801F045FA002808
:101F8000F9D0134801F062F910BD2DE9F041074680
:101F90000C460025002608E03846FFF7DFFF054421
:101FA000022000F0EEF9701CC6B2A642F4DBB5FBCD
:101FB000F4F080B2BDE8F081000400400008004069
:101FC000000C0140000801403EFEFFFF40000040C1
:101FD00000240140014600BF704700BFBD4A12887F
:101FE00002F04002002AF9D0C2B2BA4B1B1D1A807F
:101FF000704710B586B00446012144F2040000F099
:1020000097FD4FF40070ADF8140003208DF8160012
:1020100018208DF8170005A9AF4800F0CDFA4FF44D
:102020008060ADF8140004208DF8170005A9AA48B7
:1020300000F0C2FA01940020ADF80800ADF80A00E3
:10204000ADF80C00ADF810000C20ADF80E0001A9A1
:10205000A04800F014FE012240F225519D4800F0F6
:10206000A6FE01219B4800F096FE06B010BD10B5FB
:1020700001209A49087040F22551964800F07CFFF3
:1020800000283DD0934800F0F7FEC4B29448007891
:1020900088B9582C0BD1934801780078401C914A9C
:1020A00010709148445401208D49087028E00020A8
:1020B0008B49087024E08A480078012812D18948A9
:1020C00001780078401C874A1070874844541046B5
:1020D0000078062814DB0220814908700020114690
:1020E00008700DE07E480078022809D1592C02D1F1
:1020F00059207D4988710020794908707949087014
:1021000010BD10B586B004460121092000F010FD75
:102110000121880400F019FD4FF48060ADF814002F
:1021200018208DF8170003208DF8160005A96F48B8
:1021300000F042FA4FF40060ADF8140004208DF86E
:10214000170003208DF8160005A9684800F034FA3E
:1021500001940020ADF80800ADF80A00ADF80C00BD
:10216000ADF810000C20ADF80E0001A9604800F099
:1021700086FD012240F225515D4800F018FE012144
:102180005B4800F008FE06B010BD10B540F22551C6
:10219000574800F0F1FE00284AD0554800F06CFE88
:1021A000C4B25448007888B9552C0BD152480178F4
:1021B0000078401C504A10705048445401204D494A
:1021C000087035E000204B49087031E0494800783C
:1021D000012815D1512C03D0522C01D0532C0BD1F6
:1021E000022044490870444801780078401C424A63
:1021F0001070424844541BE000203E49087017E02C
:102200003C480078022813D13B4801780078401CF4
:10221000394A10703948445410460078082807DBC2
:10222000772036490872002032490870114608703C
:1022300010BD10B586B004460121052000F078FCE1
:102240000121480400F081FC0420ADF8140018209E
:102250008DF8170003208DF8160005A91E4800F020
:10226000ABF90820ADF8140004208DF81700032006
:102270008DF8160005A9184800F09EF90194002079
:10228000ADF80800ADF80A00ADF80C00ADF810008C
:102290000C20ADF80E0001A9194800F0F0FC012255
:1022A00040F22551164800F082FD0121144800F04B
:1022B00072FD06B010BD10B540F22551104800F077
:1022C0005BFE28B10E4800F0D7FDC4B20D48047281
:1022D00010BD000000380140000801400E01002040
:1022E0001E0100201F01002076020020000C01408A
:1022F0000048004020010020210100208A02002027
:10230000004400404802002010B56FF0040000F0C7
:10231000D4F82E4800682E49B0FBF1F02D49087022
:102320000846007800EB4001C1EBC0104FF6FF718A
:1023300001EAC0002849088010BD0146254A1278EC
:102340004A434FF0E0235A6100229A611A4612690B
:1023500042F001021A6100BF4FF0E022106900F064
:1023600001021AB100F48032002AF5D04FF0E022C9
:10237000126922F001024FF0E0231A6100229A61F3
:1023800070470146144A12884A434FF0E0235A61CD
:1023900000229A611A46126942F001021A6100BFD6
:1023A0004FF0E022106900F001021AB100F480320F
:1023B000002AF5D04FF0E022126922F001024FF01E
:1023C000E0231A6100229A61704700001400002087
:1023D00000127A00240100202601002009488047CD
:1023E00009480047FEE7FEE7FEE7FEE7FEE7FEE7F7
:1023F000FEE7FEE7FEE7FEE704480549054A064B0F
:1024000070470000FF03000831010008D0030020DE
:10241000D0090020D0050020D0050020314901431B
:10242000314A1160704770B5002100230F22C47833
:1024300004B32D4C246804F4E064C4F5E064210A7C
:10244000C1F10403CA40447804FA03F184781440CB
:1024500021430901254C0678A155047804F01F0595
:102460000124AC4005786D11AD0005F1E025C5F8FB
:10247000004109E0047804F01F050124AC401C4D24
:102480000678761145F8264070BD1A4A0A40024384
:10249000154B1B1F1A60704739B1134A121D126881
:1024A0000243114B1B1D1A6006E00F4A121D1268F1
:1024B00082430D4B1B1D1A607047042808D14FF052
:1024C000E021096941F004014FF0E022116107E0C9
:1024D0004FF0E021096921F004014FF0E022116181
:1024E000704700000000FA050CED00E000E400E099
:1024F00080E100E080FFFF1F10B50446CC48844215
:1025000008D10121042000F02DFB0021042000F05F
:1025100029FB46E0C748844208D10121082000F089
:1025200021FB0021082000F01DFB3AE0C248844254
:1025300008D10121102000F015FB0021102000F02F
:1025400011FB2EE0BD48844208D10121202000F07B
:1025500009FB0021202000F005FB22E0B84884425E
:1025600008D10121402000F0FDFA0021402000F0B8
:10257000F9FA16E0B348844208D10121802000F026
:10258000F1FA0021802000F0EDFA0AE0AE48844222
:1025900007D10121801500F0E5FA0021A01500F017
:1025A000E1FA10BD10B50121084600F0DBFA002168
:1025B000012000F0D7FA10BD2DE9F04102460025B8
:1025C0000026002000230024002791F803C00CF00F
:1025D0000F0591F803C00CF0100CBCF1000F03D0F4
:1025E00091F802C04CEA050591F800C0BCF1000F5B
:1025F00031D0146800202BE04FF0010C0CFA00F3EE
:10260000B1F800C00CEA03069E4220D183004FF0CF
:102610000F0C0CFA03F7BC4305FA03FC4CEA040464
:1026200091F803C0BCF1280F06D14FF0010C0CFA51
:1026300000FCC2F814C00AE091F803C0BCF1480FD6
:1026400005D14FF0010C0CFA00FCC2F810C0401C80
:102650000828D1D31460B1F800C0BCF1FF0F34DDFD
:10266000546800202EE000F1080C4FF0010808FA31
:102670000CF3B1F800C00CEA03069E4221D183009E
:102680004FF00F0C0CFA03F7BC4305FA03FC4CEABD
:10269000040491F803C0BCF1280F05D100F1080C27
:1026A00008FA0CF8C2F8148091F803C0BCF1480F86
:1026B00007D100F1080C4FF0010808FA0CF8C2F835
:1026C0001080401C0828CED35460BDE8F0814FF63E
:1026D000FF710180022181700421C17070470246A0
:1026E000002093680B400BB1012000E000207047F0
:1026F0000146886880B2704702460020D3680B40CC
:102700000BB1012000E0002070470146C86880B28C
:10271000704701617047416170470AB1016100E093
:1027200041617047C16070474FF480320A43826153
:102730008161826182698269704702460020434B51
:1027400018684FF68073184040EA021008433F4B68
:10275000186070473E49C8617047F0B50A460023CB
:1027600000240021002500F00046B6F1004F02D100
:10277000364EF16901E0354E7168C0F3034583B20E
:1027800000F44016B6F5401F08D121F070612F4EBD
:10279000766826F070662D4F7E6012E000F4801699
:1027A000B6F5801F06D1032606FA05F4A14341F0D1
:1027B000706106E0460D360103FA06F6B14341F0BA
:1027C000706122B1460D360103FA06F6314300F07E
:1027D0000046B6F1004F02D11C4EF16101E01B4EE4
:1027E0007160F0BD30B500228B071C0F0F2303FA78
:1027F00004F2164B08338C1053F824309343134CD7
:1028000008348D1044F8253023468C1053F82430BA
:102810008C07240F00FA04F423430C4C08348D1069
:1028200044F8253030BD0A49DC31086070470000AB
:1028300000080140000C014000100140001401405C
:1028400000180140001C0140002001400000014030
:1028500000002042DF48006840F00100DD490860C8
:1028600008464068DC490840DA4948600846006884
:10287000DA490840D74908600846006820F48020FB
:1028800008600846406820F4FE0048604FF41F00CE
:1028900088607047CF49096821F48031CD4A1160C2
:1028A0001146096821F480211160B0F5803F03D002
:1028B000B0F5802F0ED106E0C649096841F4803199
:1028C000C44A116007E0C349096841F4A021C14A24
:1028D000116000E000BF00BF704710B50146002244
:1028E000002300204A11012A02D1BA4C236806E0D5
:1028F000022A02D1B74C236A01E0B64C636A01F0A8
:102900001F02012494401C400CB1012000E0002073
:1029100010BD38B5002000900024002500BF3120F4
:10292000FFF7DBFF05460098401C00900098B0F5CB
:10293000A06F01D0002DF2D03120FFF7CEFF08B1FB
:10294000012400E00024204638BD01460020A14AB1
:10295000106820F0F80040EAC10010607047A049FC
:1029600008607047024600209A4B586820F47C109B
:1029700042EA01031843974B58607047984908662C
:10298000704701460020934A506820F00300084336
:10299000506070478F48406800F00C007047014657
:1029A00000208C4A506820F0F000084350607047C7
:1029B00001460020874A506820F4E06008435060D8
:1029C000704701460020834A506820F4605040EA76
:1029D000C1005060704729B17E4A527A02437D4B54
:1029E0005A7204E07B4A527A82437A4B5A72704799
:1029F0007B49D8310860704701460020754A50680D
:102A000020F440400843506070470021714A203252
:102A10001170704A82F82010012802D004280AD1CF
:102A200004E001216B4A2032117005E00521694A5A
:102A30002032117000E000BF00BF70476949086094
:102A400070476449096A0143624A116270476549E7
:102A500044390860704730B500210022002400236B
:102A60005C4D6D6805F00C0121B1042905D00829E1
:102A700023D105E05C4D056022E05B4D05601FE061
:102A8000544D6D6805F47012524D6D6805F4803434
:102A9000022505EB92421CB9544D554305600BE0ED
:102AA0004C4D6D6805F400351DB1504D5543056022
:102AB00002E04D4D5543056002E04B4D056000BFFF
:102AC00000BF444D6D6805F0F0010909484D6B5C8D
:102AD0000568DD4045603F4D6D6805F4E061090A19
:102AE000434D6B5C4568DD4085603A4D6D6805F48B
:102AF0006051C90A3E4D6B5C4568DD40C560354D8F
:102B00006D6805F44041890B3A4D6B5CC568B5FBB7
:102B1000F3F5056130BD29B12E4A526902432D4BB0
:102B20005A6104E02B4A526982432A4B5A6170472A
:102B300029B1284A92690243264B9A6104E0254A4A
:102B400092698243234B9A61704729B1214AD26925
:102B50000243204BDA6104E01E4AD26982431D4BD6
:102B6000DA61704729B11B4AD2680243194BDA6017
:102B700004E0184AD2688243164BDA60704729B1E4
:102B8000144A12690243134B1A6104E0114A126994
:102B90008243104B1A6170471249403908607047F0
:102BA0000F49C86470470B49C87170470948406AAB
:102BB00040F0807007494862704701460020054A8E
:102BC00092680A400AB1012000E0002070470149E4
:102BD00088727047001002400000FFF8FFFFF6FE09
:102BE000000042428004424200127A0000093D0087
:102BF000280100203801002010B50446FB4884421B
:102C000009D101218803FFF7ADFF00214FF4804077
:102C1000FFF7A8FF32E0F648844209D101214804B9
:102C2000FFF7ADFF00214FF40030FFF7A8FF25E0CC
:102C3000F048844209D101218804FFF7A0FF002158
:102C40004FF48020FFF79BFF18E0EB48844209D146
:102C50000121C804FFF793FF00214FF40020FFF784
:102C60008EFF0BE0E548844208D101210805FFF7FB
:102C700086FF00214FF48010FFF781FF10BD2DE982
:102C8000F04786B005460E460024A24600BFA14686
:102C90000027B08900B100BF2F462C8A4CF6FF7088
:102CA0000440F08804432C82AC894EF6F3100440B3
:102CB000B08831890843718908430443AC81AC8AE8
:102CC0004FF6FF400440B0890443AC8201A8FFF7EF
:102CD000C2FEC648874202D1DDF810A001E0DDF84F
:102CE0000CA0A88900F4004040B10AEBCA0000EB38
:102CF0000A1031684900B0FBF1F807E00AEBCA009E
:102D000000EB0A1031688900B0FBF1F86420B8FBD1
:102D1000F0F004012009642101FB1089A88900F466
:102D2000004040B1322000EBC900B0FBF1F000F0F0
:102D30000700044308E0322000EB09106421B0FBD7
:102D4000F1F000F00F0004432C8106B0BDE8F087DD
:102D50004FF41651016000218180C18001810C2156
:102D6000418100218181704710B502460020108A00
:102D70004FF2FF0318400B884C8823438C88234371
:102D8000CC8823431843108210BD0021018041806C
:102D90008180C180704721B1828942F400528281D2
:102DA00004E082894DF6FF731A4082817047F0B5C6
:102DB0000346002400260025002040F66A17B94289
:102DC00000D100BF1846C1F3421401F01F060127CD
:102DD00007FA06F5012C01D10C3004E0022C01D1D8
:102DE000103000E014301AB107682F43076002E08A
:102DF0000768AF430760F0BD1AB1838A0B43838233
:102E000002E0838A8B4383827047028A4FF6F07315
:102E10001A400282028A0A430282704782894FF274
:102E2000FF731A40828182890A438281704721B1EF
:102E3000828942F00202828104E082894FF6FD73AA
:102E40001A4082817047028A4FF6DF731A4002826D
:102E5000028A0A430282704721B1028A42F4804208
:102E6000028204E0028A4BF6FF731A400282704726
:102E7000C1F308028280704701468888C0F30800C9
:102E80007047818941F0010181817047028BD2B284
:102E90000283028B42EA012202837047028B02F412
:102EA0007F420283028B0A430283704721B1828AE8
:102EB00042F02002828204E0828A4FF6DF731A40D9
:102EC0008282704721B1828A42F01002828204E03D
:102ED000828A4FF6EF731A408282704721B1828A4C
:102EE00042F00802828204E0828A4FF6F7731A40A9
:102EF0008282704721B1828942F40042828103E0DC
:102F00008289C2F30E028281704721B1828A42F423
:102F10000062828204E0828A4FF2FF731A4082824A
:102F20007047828A4FF6FB731A408282828A0A4374
:102F30008282704721B1828A42F00202828204E0DA
:102F4000828A4FF6FD731A40828270470246002043
:102F5000B1F5007F00D100BF13880B400BB10120F9
:102F600000E00020704701F40072B2F5007F00D14C
:102F700000BFCA430280704770B502460024002398
:102F80000025002040F66A16B14200D100BFC1F30F
:102F9000421501F01F03012606FA03F3012D02D1A9
:102FA0009689334006E0022D02D1168A334001E0B3
:102FB000968A33400C12012606FA04F4168834402F
:102FC00013B10CB1012000E0002070BD10B500224B
:102FD000002340F66A14A14200D100BF0A12012466
:102FE0009440A3B2DC43048010BD000000380140CF
:102FF0000044004000480040004C004000500040A9
:1030000010B50446FA48844208D101214015FFF763
:10301000A9FD00216015FFF7A5FD17E0F5488442E2
:1030200008D101210015FFF79DFD00212015FFF7B4
:1030300099FD0BE0F048844208D10121C803FFF755
:1030400091FD00214FF40040FFF78CFD10BD30B51D
:103050000246002000235068E84C20400D790C689F
:1030600044EA0524204350609068E54C2040D1E9B3
:1030700002542C434D7944EA450420439060D06AC1
:1030800020F470000C7C641EE4B2234340EA035039
:10309000D06230BD00210160017141718160C16069
:1030A00001210174704721B1826842F001028260FF
:1030B00003E0826822F001028260704721B18268D9
:1030C00042F48072826003E0826822F4807282603F
:1030D000704710B50023CBB21AB144681C4344605A
:1030E00002E044689C43446010BD816841F00801DF
:1030F00081607047014600208A6802F008020AB128
:10310000012000E000207047816841F004018160E7
:103110007047014600208A6802F004020AB10120CB
:1031200000E00020704721B1826842F4A002826072
:1031300003E0826822F4A00282607047014600200A
:103140008A6802F480020AB1012000E00020704782
:1031500010B50A4600210023416821F46041531E46
:1031600041EA4331416010BD21B1426842F400623E
:10317000426003E0426822F4006242607047F0B5AA
:1031800004460D4600200021092D11DDE068A5F15F
:103190000A0606EB4607072606FA07F18843A5F15B
:1031A0000A0606EB460603FA06F10843E0600CE067
:1031B000206905EB4507072606FA07F1884305EB6A
:1031C000450603FA06F108432061072A0FDA606B0F
:1031D000561E06EB86071F2606FA07F18843561E81
:1031E00006EB860605FA06F10843606322E00D2A25
:1031F0000FDA206BD61F06EB86071F2606FA07F1AB
:103200008843D61F06EB860605FA06F108432063BD
:1032100010E0E06AA2F10D0606EB86071F2606FA0B
:1032200007F18843A2F10D0606EB860605FA06F1C2
:103230000843E062F0BD21B1826842F480128260EE
:1032400003E0826822F48012826070470146C86CF5
:1032500080B2704766484C300068704721B14268C0
:1032600042F48062426003E0426822F4806242607D
:10327000704721B1426842F48052426003E04268E4
:1032800022F48052426070470A460021816821F48E
:10329000E04111438160704721B1826842F40042ED
:1032A000826003E0826822F400428260704721B1AC
:1032B000826842F40212826003E0826822F4021201
:1032C00082607047014600208A6802F400120AB149
:1032D000012000E000207047F0B5044615460020AC
:1032E00000220026092911DDE068A1F10A0707EB99
:1032F000470C072707FA0CF29043A1F10A0707EBE6
:10330000470703FA07F21043E0600CE0206901EB85
:10331000410C072707FA0CF2904301EB410703FA2F
:1033200007F210432061A06BC0F30156EF1C06F1B9
:10333000010CA7EB0C0707EB870C1F2707FA0CF211
:103340009043EF1C06F1010CA7EB0C0707EB870776
:1033500001FA07F21043A063F0BD10B50A46002140
:103360000023816B21F44011531E41EA0351816314
:1033700010BD08B5002300930090009B0B44009300
:10338000009B1A6008BD08B502460020009000921C
:1033900001F12800009B184400900098006880B25A
:1033A00008BD0A4600214168164B1940114341608F
:1033B00070474162826270470A460021416821F0ED
:1033C0001F0111434160704740B109490831096844
:1033D00041F40001064A0832116007E0044908314F
:1033E000096821F40001024A0832116070470000A8
:1033F0000024014000280140003C0140FFFEF0FF96
:10340000FDF7F1FFFFFD3FFF0246002013680B4070
:103410000BB1012000E000207047CA4302607047F2
:1034200070B502460020002300240B125568CEB26E
:1034300005EA060415681D4015B10CB1012000E035
:10344000002070BD00220A12D343036070470000C1
:1034500010B50446FE48844208D10121C014FFF78C
:1034600081FB0021E014FFF77DFBC4E0B4F1804F45
:1034700008D101210846FFF782FB00210120FFF758
:103480007EFBB8E0F348844208D101210220FFF717
:1034900076FB00210220FFF772FBACE0EE4884428D
:1034A00008D101210420FFF76AFB00210420FFF767
:1034B00066FBA0E0E948844208D101210820FFF71B
:1034C0005EFB00210820FFF75AFB94E0E4488442A9
:1034D00008D101211020FFF752FB00211020FFF737
:1034E0004EFB88E0DF48844208D101212020FFF70D
:1034F00046FB00212020FFF742FB7CE0DA488442B3
:1035000008D101214014FFF72DFB00216014FFF7C3
:1035100029FB70E0D548844209D10121C804FFF796
:1035200021FB00214FF40020FFF71CFB63E0D04893
:10353000844209D101210805FFF714FB00214FF453
:103540008010FFF70FFB56E0CA48844209D10121E1
:103550004805FFF707FB00214FF40010FFF702FBBF
:1035600049E0C548844208D101214020FFF707FB0C
:1035700000214020FFF703FB3DE0C048844208D112
:1035800001218020FFF7FBFA00218020FFF7F7FAE6
:1035900031E0BB48844208D101218015FFF7EFFAE2
:1035A0000021A015FFF7EBFA25E0B648844209D1C7
:1035B00001210804FFF7D6FA00214FF48030FFF70D
:1035C000D1FA18E0B048844209D101214804FFF73C
:1035D000C9FA00214FF40030FFF7C4FA0BE0AB4802
:1035E000844208D101218804FFF7BCFA00214FF47E
:1035F0008020FFF7B7FA10BD00220288944B984252
:103600000ED0994B98420BD0B0F1804F08D0914B1F
:10361000984205D0904B984202D0904B984204D1EA
:103620004FF68F731A404B881A438D4B984207D040
:103630008C4B984204D04FF6FF431A40CB881A4374
:1036400002808B8883850B880385814B98420BD041
:10365000854B984208D08B4B984205D08A4B9842B4
:1036600002D08A4B984201D10B7A038601238382D0
:10367000704770B5002400220023058C4FF6FE76BB
:1036800035400584028C8388048B4FF68F752C405F
:10369000B51E2C400D882C43751E2A400D892A43E7
:1036A0004D882A436A4DA8420BD06F4DA84208D0DE
:1036B000744DA84205D0744DA84202D0734DA84263
:1036C00013D14FF6F7752A404D892A434FF6FB7503
:1036D0002A408D882A434FF6FF652B404FF6FF5551
:1036E0002B408D892B43CD892B4383800483CD8848
:1036F0008586028470BD70B5002400220023058CED
:103700004FF6EF7635400584028C8388048B48F6AB
:10371000FF752C404FF6FF452C400D884FF6FF7685
:1037200006EA05252C434FF6DF752A400D8906EA87
:1037300005152A434D8806EA05152A43444DA8423B
:1037400002D0494DA8421DD14FF67F752A404D89C0
:103750004FF6FF7606EA05152A434FF6BF752A4055
:103760008D8806EA05152A434FF6FF352B404FF2A8
:10377000FF752B408D8906EA85052B43CD8906EA26
:1037800085052B4383800483CD880587028470BD23
:1037900070B5002400220023058C4FF6FF663540EB
:1037A0000584028C8388848B4FF68F752C404FF6EE
:1037B000FC752C400D882C434FF6FF552A400D898F
:1037C0004FF6FF7606EA05252A434D8806EA0525C9
:1037D0002A431F4DA84202D0234DA8421DD14FF2CB
:1037E000FF752A404D894FF6FF7606EA05252A43E4
:1037F0004FF6FF352A408D8806EA05252A434EF606
:10380000FF752B404DF6FF752B408D8906EA051597
:103810002B43CD8906EA05152B4383808483CD880D
:103820008587028470BD70B5002200230024058CBA
:103830004EF6FF7635400584038C8488828B48F6EB
:10384000FF752A404FF6FF452A400D8820E0000012
:10385000002C01400004004000080040000C004023
:10386000001000400014004000340140004C0140B2
:10387000005001400054014000180040001C00406E
:103880000020004000400140004401400048014049
:103890004FF6FF7606EA05252A434DF6FF752B40C5
:1038A0000D8906EA05352B434D8806EA05352B437D
:1038B000FA4DA84202D0FA4DA84208D14BF6FF7546
:1038C0002C408D894FF6FF7606EA85152C438480BF
:1038D0008283CD88A0F84050038470BD828B4FF264
:1038E000FF331A408283828B4FF6FF7303EA012372
:1038F0001A4382837047F0B50C461546002200211A
:103900000026078C4EF6FF7C07EA0C070784828BA3
:10391000018C4FF6FF7707EA043640F6FF473A403E
:103920004FF6FF7707EA05273A434FF6FF7707EA96
:1039300003373A43D94FB8420ED0D94FB8420BD0D3
:10394000B0F1804F08D0D74FB84205D0D64FB8421B
:1039500002D0D64FB84206D14DF6FF77394046F433
:103960008057394305E047F6FF57394044F4805704
:10397000394382830184F0BD828B4FF6F3731A4082
:103980008283828B0A4382837047F0B50C461546CA
:10399000002200210026078C4FF6FF6C07EA0C0777
:1039A0000784828B018C4FF6FF7707EA04264FF6D7
:1039B0000C773A404FF6FF7707EA03172F433A4355
:1039C000B64FB8420ED0B64FB8420BD0B0F1804FD0
:1039D00008D0B44FB84205D0B34FB84202D0B34F6D
:1039E000B84206D14FF6FF57394046F48077394345
:1039F00005E04FF2FF57394044F480773943828322
:103A00000184F0BD028B4FF2FF331A400283028B18
:103A10004FF6FF7303EA01231A4302837047F0B5A0
:103A20000C461546002200210026078C4FF6EF7C3D
:103A300007EA0C070784028B018C4FF6FF7707EA31
:103A4000041640F6FF473A404FF6FF7707EA033780
:103A50003A434FF6FF7707EA05273A438F4FB842BC
:103A60000ED08F4FB8420BD0B0F1804F08D08D4FA1
:103A7000B84205D08C4FB84202D08C4FB84206D124
:103A80004FF6DF77394046F01007394305E04FF62F
:103A90005F77394044F01007394302830184F0BD59
:103AA000028B4FF6F3731A400283028B0A430283A0
:103AB0007047F0B50C46154600220021068C4FF6E3
:103AC000FE773E400684028B018C4FF60C76324026
:103AD0007E1C06EA03162E433243704EB0420ED0CF
:103AE0006F4EB0420BD0B0F1804F08D06D4EB04257
:103AF00005D06D4EB04202D06C4EB04206D14FF6AA
:103B0000FD76314044F00106314305E04FF6F5768D
:103B1000314044F00106314302830184F0BD70B5A9
:103B200005460C465D4885420ED05D4885420BD067
:103B3000B5F1804F08D05B48854205D05A48854290
:103B400002D05A48854200D100E000BF208850B919
:103B50002389A28861882846FFF7ABFFE1882846C1
:103B6000FFF79EFF25E0208804280AD12389A28838
:103B700061882846FFF753FFE1882846FFF742FF98
:103B800017E0208808280AD12389A288618828465E
:103B9000FFF7FBFEE1882846FFF7EEFE09E02389E8
:103BA000A28861882846FFF7A6FEE1882846FFF72D
:103BB00095FE70BD2DE9F04105460C460026012713
:103BC000608808B9022600E00026A088012801D1FB
:103BD000022700E001272088A0B92389A2886188F4
:103BE0002846FFF766FFE1882846FFF759FF23893B
:103BF0003A4631462846FFF712FFE1882846FFF78C
:103C000001FF13E02389A28861882846FFF707FF98
:103C1000E1882846FFF7F6FE23893A4631462846D2
:103C2000FFF747FFE1882846FFF73AFFBDE8F0813C
:103C30000A884B881A438B881A43CB881A430B890E
:103C40001A434B891A438B891A43A0F844207047C2
:103C50004FF6FF71818000210180C1804180017297
:103C600070470021018041808180C18001814181B4
:103C70008181C181704700210180418001218180C3
:103C80000021C18001817047002101804180818035
:103C9000C18001814181818170470000002C014079
:103CA000003401400004004000080040000C0040C7
:103CB00021B1028842F00102028004E002884FF63E
:103CC000FE731A400280704731B1B0F8442042F4CC
:103CD0000042A0F8442005E0B0F84420C2F30E02F0
:103CE000A0F8442070471AB183890B43838102E016
:103CF00083898B43838170478182704741EA020345
:103D0000A0F8483070471AB183890B43838102E0E1
:103D100083898B438381704701894FF6F872114084
:103D2000018170470A46002101894FF68F731940BF
:103D300011430181704730B504460D46294620469F
:103D4000FFF7F0FF208940F00700208130BD2DE90A
:103D5000F04104460D4616461F46602D06D13B46EF
:103D6000012231462046FFF75AFE05E03B4601227C
:103D700031462046FFF79DFE29462046FFF7D2FF39
:103D8000208940F007002081BDE8F08130B50C4665
:103D900000210189C9B24FF6FF7505EA03251543D5
:103DA00025432943018130BD2DE9F04105460E46EA
:103DB00017469846002443463A4631462846FFF7C0
:103DC000E5FF2C894FF6F870044044F007044FF6E5
:103DD0008F70044044F070042C81BDE8F081F0B590
:103DE00004460D4616461F463B46324629462046A7
:103DF000FFF7CCFF208940F480402081F0BD018591
:103E0000828270470A46002101884FF68F7319405D
:103E1000114301807047F0B50C4615461E4600213F
:103E2000002200230189028B038C4FF6F87739407A
:103E300021434FF6FC473A4040F201173A434FF610
:103E4000DD773B404FF6FF7707EA06172F433B43EA
:103E5000018102830384F0BD0A460021018B4FF6E5
:103E60008F7319401143018370470A460021018B6B
:103E700048F6FF7319404FF6FF7303EA0223194314
:103E8000018370470A460021818B4FF68F731940DA
:103E90001143818370470A460021818B48F6FF73E6
:103EA00019404FF6FF7303EA0223194381837047D9
:103EB00021B1028842F08002028004E002884FF6BD
:103EC0007F731A400280704721B1828842F0040259
:103ED000828004E082884FF6FB731A40828070472C
:103EE00021B1828842F00802828004E082884FF685
:103EF000F7731A408280704721B1828842F0010234
:103F0000828004E082884FF6FE731A4082807047F8
:103F10000A460021018B4FF6F773194011430183C4
:103F200070470A460021018B4FF2FF7319404FF68C
:103F3000FF7303EA02231943018370470A460021F5
:103F4000818B4FF6F77319401143818370470A46FE
:103F50000021818B4FF2FF7319404FF6FF7303EA84
:103F600002231943818370470A460021018B4FF6D3
:103F7000FB7319401143018370470A460021018BEE
:103F80004FF6FF3319404FF6FF7303EA022319433C
:103F9000018370470A460021818B4FF6FB7319405D
:103FA0001143818370470A460021818B4FF6FF330E
:103FB00019404FF6FF7303EA0223194381837047C8
:103FC0000A460021018B4FF67F731940114301838C
:103FD00070470A460021018BC1F30E014FF6FF73B3
:103FE00003EA02231943018370470A460021818BAB
:103FF0004FF67F7319401143818370470A460021B1
:10400000818BC1F30E014FF6FF7303EA02231943BC
:10401000818370470A460021018C4FF6FD731940D9
:104020001143018470470A460021018C4FF6F77353
:1040300019401143018470470A460021018C4FF654
:10404000DF7319404FF6FF7303EA0213194301842B
:1040500070470A460021018C4FF67F7319404FF6D6
:10406000FF7303EA02131943018470470A460021D3
:10407000018C4FF6FF5319404FF6FF7303EA0223FA
:104080001943018470470A460021018C4FF2FF73E7
:1040900019404FF6FF7303EA022319430184704766
:1040A0000A460021018C4DF6FF7319404FF6FF734D
:1040B00003EA023319430184704730B50023012419
:1040C0008C40A3B2048C9C430484048C02FA01F556
:1040D000ADB22C43048430BD30B5002304248C40A1
:1040E000A3B2048C9C430484048C02FA01F5ADB2A3
:1040F0002C43048430BD70B50346002000241846CC
:10410000183001258D40ACB21D8CA5431D8409B12A
:10411000082909D100EB6100056825F070050560EC
:104120000568154305600EE00D1FC5F34E052844D4
:10413000056825F4E045056005684FF6FF7606EA58
:1041400002263543056070BD21B1028842F00202AB
:10415000028004E002884FF6FD731A400280704727
:1041600021B1028842F00402028004E002884FF686
:10417000FB731A400280704721B1828842F08002AE
:10418000828004E082884FF67F731A4082807047F5
:1041900002884FF6F7731A40028002880A430280B1
:1041A000704782884FF68F731A40828082880A4354
:1041B0008280704702894FF6F8731A4002810289A3
:1041C0000A430281704702894FF67F731A400281C9
:1041D00002890A4302817047818470478185704754
:1041E000818670470187704781877047A0F840102B
:1041F000704702884FF6FF431A40028002880A4344
:10420000028070470146888E70470146088F7047CC
:104210000146888F70470146B1F84000704701465B
:10422000888C70470146088D704702460020138A2B
:104230000B400BB1012000E000207047CA4302820E
:10424000704730B50246002000230024158A05EA95
:104250000103958905EA010413B10CB1012000E0C6
:10426000002030BDCA4302827047704770477047D4
:104270007047704710B500F009F8006810BD10B520
:10428000044600F003F8046010BD000000487047C9
:104290007003002000487047700300207546FFF748
:1042A000F9FFAE4605006946534620F007008546F3
:1042B00018B020B5FEF7A0F8BDE820404FF000068A
:1042C0004FF000074FF000084FF0000B21F00701FE
:1042D000AC46ACE8C009ACE8C009ACE8C009ACE841
:1042E000C0098D4670470446AFF300802046FBF7B7
:1042F00076FF490050EAC12018BF04204A0D18BFBC
:1043000040F0010040F2FF72B2EB515F08BF40F095
:104310000200012808BF052070472DE9F0414F1E1B
:1043200000EBC7010446D1E9000115461E4637F0EF
:1043300006020DD02A46334601F0C0F87F1E04EB7A
:10434000C703D3E9002300F091FD37F00602F1D155
:10435000022F25D0042F13D0062F18BFBDE8F081FF
:104360002A46334601F0AAF8D4E90A2300F07EFD7C
:104370002A46334601F0A2F8D4E9082300F076FD7E
:104380002A46334601F09AF8D4E9062300F06EFD80
:104390002A46334601F092F8D4E9042300F066FD82
:1043A0002A46334601F08AF8D4E9022300F05EFD84
:1043B0002A46334601F082F8D4E90023BDE8F041F3
:1043C00000F054BD002213461046014900F00ABE19
:1043D0000000F03F00F04ABD00221346104611468F
:1043E00000F000BE40F2013200204FF0E04101F049
:1043F0007EBF0000024A0020110701F078BF0000D4
:1044000001FDFFFF2DE9F04D16460F4694B01C4606
:1044100021F0004123F00042002814BF4FF0010CAE
:104420004FF0000C0CEB470CFE4B0CEB03054FEA76
:10443000630C65452BD3350018BF012505EB4405FA
:104440001D44F94B9D4222D3F84B52EA060C02D090
:104450009F4205D148B914B000201946BDE8F08D3F
:10446000002808BF4FF0000C01D04FF0010C0CEBFE
:10447000470313F5001F0AD8002E14BF4FF0010C9C
:104480004FF0000C0CEB440313F5001F07D914B0D8
:10449000324623463946BDE8F04DFFF79BBFDFF8B3
:1044A00090834FF0000A002FB8BF424523DAE14B5A
:1044B0009A42A8BF4FF0020A1DDADC4B93421ADC85
:1044C000DD4B03EB2253142B08DDC3F1340C26FA29
:1044D0000CF303FA0CFCB4450DD108E05EB9C3F14E
:1044E000140C22FA0CF303FA0CFC944503D103F0EC
:1044F0000103C3F1020A51EA00031BD1002C19DAAF
:10450000002F18BFBAF1020F02D0BAF1010F07D085
:104510000220FFF7B4FE14B0BDE8F04DFFF752BF24
:104520000220FFF7ACFEFFF74DFF14B081F0004111
:10453000BDE8F08D330070D1424525D107F18042AE
:1045400012F5801201BF00280020B84914B008BF3E
:10455000BDE8F08DB548884207DC002CA1BF1846A5
:10456000214614B0BDE8F08D07E0002CBFBF18460F
:1045700084F0004114B0BDE8F08DB0497944D1E930
:10458000000114B0BDE8F08DDFF8A0C262452AD169
:10459000002C24DA39B1414517D1002804BF00208E
:1045A00002461CD106E040B10220FFF768FEFFF78B
:1045B00019FF0A46394600F0D7BA9D4A394614B069
:1045C000002062F31E01BDE8F08D08DA14B03B460E
:1045D000BDE8F04D02460020614600F003BD14B076
:1045E0003946BDE8F08D414517DAB4F1804F0CD063
:1045F000A4F10053B3F1FF530FD13B1E0DDB14B0F8
:104600001946BDE8F04D00F0D9BB3B4614B0024658
:10461000BDE8F04D194600F051BF050027F00043FA
:104620003AD1E1B1414537D1002F06DD002CA1BFC1
:104630000020414614B0BDE8F08D002F01DD002CB4
:104640001FDB002F16DA002C14DBBAF1010F4FF03C
:10465000000014BF76497A4914B0BDE8F08DBAF174
:10466000020F18BF002F0CD0BAF1010F09D1002F93
:1046700007DA0BE0002FB8BF002C0DDABAF1010FFA
:1046800004D0002014B00146BDE8F08D14B0002025
:104690004FF00041BDE8F08D4FF0010808EBE77CDA
:1046A000CDF814C05CEA0A0C0DD0DFF898C1624561
:1046B0007EDDDFF894C1654B624512DD8B420ADB7B
:1046C000002C18DB23E00120FFF7D9FD14B0BDE872
:1046D000F04DFFF781BE554A8A4202DC002C0ADC0D
:1046E00015E0994202DA002C11DA04E04F4B9942AE
:1046F00019DD002C0BDD0220FFF7C1FDFFF772FE74
:104700004B4A14B061F31E021146BDE8F08D022041
:10471000FFF7B5FDFFF76EFE444A14B061F31E02C9
:104720001146BDE8F08D0022394601F0EDF807464C
:104730000D466FF0010201F0DAFD4FF05532444BA7
:1047400000F0F0FF3A462B4600F0B8FE0022414B45
:1047500000F0E8FF80468B463A462B461046194645
:1047600000F0ACFE42465B4600F0A8FE88460E9084
:104770004FF0C042384B3846294600F09FFE834632
:104780000091364A344B41460E9800F097FE804621
:104790000191334A334B3846294600F08FFE42469A
:1047A000019B01F0B1F80D4602460B460C9000E06B
:1047B00011E05846009900F059FB002788465A46F8
:1047C0003846009B01F0A0F82B460C9A00F0AAFF97
:1047D000024600F079B90020B1F5801F07DA3522D2
:1047E0002846194601F083FD05466FF0340000EBC2
:1047F0002150A0F2FF300190C1F3130040F07F611F
:1048000041F04051029118498842D8BF4FF0000B47
:1048100035DD16498142C8BF4FF0010B2FDC4FF048
:10482000000B25E0FFFF1F00FFFF0F000000F03F1F
:104830000000F07F0000404301FCFFFF881E0000E5
:104840000000F0FF0000E0410000F043FFFFEF3FF9
:104850005555D53F0000E03F4715F73FFE822B65D9
:1048600044DF5DF80BAE543E8E9803007AB60B0021
:104870000198401C01900298A0F580100290FF481A
:104880000299784400EBCB000991D0E90023284637
:104890000B93129201F038F800910A9028460B9B76
:1048A000129A099900F0E2FA02460B460020F449F8
:1048B00000F098FBCDE90C010B46024600990A98DE
:1048C00000F0FCFD0690EF488846002778440299E6
:1048D000006810904FF0005040EA610000EB8B4000
:1048E00000F5002102910B9B129A109801F00CF830
:1048F0002A46099B00F016FF3A46434600F0DEFDCB
:104900000891129038464146029B109A00F0D6FD5D
:10491000009B0A9A00F006FF089B129A00F0F4FF31
:10492000DDE90C2300F0CAFD0B91069A1290434674
:104930001046194600F0C2FD05460246D2480B4615
:104940000A9106217844FFF7E8FC0A9B2A46089161
:1049500002901046194600F0B1FD089B029A00F043
:10496000ADFD05460991434638461946069A00F0C2
:104970007DFA0B9B129A00F0A1FD2A46099B00F0DC
:1049800075FACDE908013A4643461046194600F04B
:1049900095FD0A910022BD4B009000F067FADDE919
:1049A000082300F063FA0D463A46B84B384600F04B
:1049B000ABFF0A9B009A00F0A7FFDDE9082300F097
:1049C000B1FECDE908013A462B461046414600F0BB
:1049D00075FD00910A90DDE908014346069A00F052
:1049E0006DFD069088462B463A460B99129800F0CA
:1049F00065FD4346069A00F039FA80460B460246AA
:104A00000D9100990A9800F031FA00200F460546F2
:104A1000009B0A9A00F078FF42460D9B00F082FE50
:104A200088460E904FF06042994B2846394600F078
:104A300045FD02910090974A954B41460E9800F033
:104A40003DFD80460391944A944B2846394600F038
:104A500035FD4246039B00F009FA914A7A4402EB85
:104A6000CB03D3E9002300F001FA05460791019832
:104A700000F06DFC0C9003912A46079B0299009868
:104A800000F0F4F9874A7A4402EBCB03D3E9002320
:104A90009346019300F0EAF9039B0C9A00F0E6F9C3
:104AA000002788463846039B0C9A00F02DFF5A4693
:104AB000019B00F029FF029B009A00F025FF2A4687
:104AC000079B00F02FFE02460020069005986C4DD3
:104AD000AAF10103184301D1734D069000200B4643
:104AE00004903046214600F0E9FC82468B4623467E
:104AF00030461946049A00F007FF3A46434600F054
:104B0000DDFC52465B4600F0B1F906468A463A465D
:104B100043462146049800F0D1FC04460F46324635
:104B2000534600F0A3F9614A8B46914221DBABEB7F
:104B3000020353EA000210D122463B4600F0E4FE95
:104B4000804603915A4A5B4B3046514600F08EF93D
:104B50004246039B00F0B0FD27D20220FFF78FFBF7
:104B6000FFF740FC0A46294614B062F31E01BDE877
:104B7000F08D514B2BF000429A4216D34F4A0BEB6B
:104B8000020353EA000208D122463B4600F0BCFE75
:104B90003246534600F090FD07D80220FFF76FFB26
:104BA000FFF728FC0A462946DEE72BF0004044497F
:104BB000444A01EB20514FF00008824223DA481C9E
:104BC0004FF4801121FA00F058443F4AC0F30A51D3
:104BD0007A443E4BA1F2FF31CB4020EA0303C0F3FD
:104BE000130040F4801CC1F1140012682CFA00F884
:104BF000BBF1000FB8BFC8F100082046394600F0ED
:104C000083FE04460F4622463B463046514600F09E
:104C10002DF94FF0000B5A462D4B5846039100F0EA
:104C20004DFC00910A902B4A2B4B5846039900F0FB
:104C300045FC0491029022463B465846039900F0F9
:104C400063FE3246534600F06DFD244A244B00F0CB
:104C500035FC049B029A00F009F907468A46009B3E
:104C60000A9A00F003F904460E46009B0A9A00F0E7
:104C70004BFE3A46534600F055FD33E0FA1A000069
:104C80000000F03F381B0000681A000000000840D8
:104C900009C7EE3FFD033ADCF5015B14E02F3EBE91
:104CA00040190000061900000000F0BF000090400D
:104CB000FE822B654715973C00CC904000346F3F37
:104CC00001FCFFFF0000E03F34180000FFFF0F0071
:104CD000432EE63F396CA80C615C20BEEF39FAFE2A
:104CE000422EE63F0746224633460F9110461946AC
:104CF00000F0E4FB834602462E488A460B46052117
:104D00007844FFF70AFB5A46534600F0D7FB224689
:104D1000334600F007FD82468B463A462046314630
:104D20000F9B00F0CBFB3A460F9B00F09FF80F461D
:104D30000A9000224FF080435046594600F0E4FDAF
:104D40000391009052465B462046314600F0B6FB88
:104D5000039B009A00F046F93B460A9A00F0D4FD06
:104D60002246334600F0D0FD0022134B00F0DAFC5F
:104D70000E46044601EB08510815002810DC424697
:104D80002046314601F0B3FAFFF7B3FA042808BF12
:104D9000FFF730FB42462046314601F0A8FA0446B0
:104DA00006980B4614B022462946BDE8F04D00F0A7
:104DB00085BB0000DC1600000000F03F2DE9F0414B
:104DC00006460F4600F0BAFC04000D4618BF01204D
:104DD000284320F00040C0F17F6000F1E040C00FA8
:104DE0000ED0301C18BF0120384320F00040C0F125
:104DF0007F6000F1E040C00F04BF0120FFF73FFAE1
:104E000020462946BDE8F08121F00042A2F160521F
:104E1000B2F5801F01F0004328BFD2F17F6C0BD99F
:104E20005FEA001C43EAC20242EB507018BF7047B1
:104E300028BF20F001007047B2F5801FBCBF1846A4
:104E400070474FEA410C1CF5001F02D2084601F0E2
:104E500004B970B500F0DCFB00000089FFF7F6BF75
:104E60004FF00040A0F580007047000010B591EAB7
:104E7000030F48BF83F0004300F14E85841A71EBA5
:104E8000030C05D2121943EB0C03001B61EB0C0160
:104E9000DFF824E14FEA1154A4EB135C1EEA430F40
:104EA00018BF9EEA445F73D023EA0E03DCF1200EA4
:104EB00021EA045143F4801332D322FA0CFE10EBA2
:104EC0000E0023FA0CFE41EB0E01CCF1200E03FA8A
:104ED0000EFE10EB0E0051F10001B1F5801FCCF178
:104EE000200E32D201EB045112FA0EF2BDE810404E
:104EF00058BF7047401C38BF5FEA420218BF704776
:104F0000002814BF20F0010041F100014FEA4103E5
:104F100013F5001F38BF7047A1F1C04100F0C6BBB8
:104F2000012A43EB0302ACF1200CDCF11F0E32BF6F
:104F30004FF0000E23FA0CF310EB030041EB045189
:104F4000B4EB115FD0D0A1EB045101F580114908F9
:104F50005FEA300001EB04510ED350F1000038BF7E
:104F600012FA0EFE08D1BDE81040C9E7401C38BF58
:104F70005FEA4202CAD1C3E7BDE810404FEA4103ED
:104F800013F5001F38BF7047A1F1C04100F08EBB80
:104F90009EEA445F08D011EA5E0FBDE8104004BFEE
:104FA00001F0004100207047BDE8104070B500F0EE
:104FB0002FFB00BF64FBBE3E0000E0FF02494FF044
:104FC000000001F062B900BF0000F87F491058BF2F
:104FD000C1F140415B1058BFC3F140438B42EFF336
:104FE000008070472DE9C04130B4DFF8A0C23CEA30
:104FF000111418BF3CEA131400F0EC8081EA030599
:105000001CEA111444EAD57418BF1CEA131500F009
:10501000C780A4EB05044FF0004545EAC12145EAED
:10502000C32341EA505143EA525304F17F74994239
:1050300004F500344FEAC0204FEAC22208BF904274
:1050400000F09C804FEA13650FF24016765D4FEA40
:10505000134506FB05F7C7F1807706FB07F74FEA14
:10506000D737A7FB03687642C8F58038A7FB06CE82
:1050700038BFA8F1010807FB08E64FF0000EA6FBB9
:10508000028CE6FB03CEDCF1000CCEF1004E38BF03
:10509000AEF1010EA6FB0C584FF000074FF00005D3
:1050A000E6FB0E87A1FB08C6A0FB07CE16EB0E069B
:1050B00045F10005E1FB076515F1E04E7EBFA4F563
:1050C00080345FEA46066D4116F1800745F1000520
:1050D0004FEA17274FEA066647EA0567A6F1DE465C
:1050E000B6F1805F4FEA15251FD9384624F0010C30
:1050F00005EBC471BCF1FE6F01EB0C1102D8F0BCE2
:10510000BDE8008124425CBF01F5801E9EEAC47F99
:1051100002D4F0BCBDE80081244238D4F0BCA1F137
:10512000C041BDE8004100F0C1BA4FEAD22242EAD4
:1051300043524FEAD323A7FB02864FEAD02040EA2E
:10514000415007FB03661EEA0E0F4FEAD12105FB13
:10515000026658BFA6EB0056B6EB00564FEA520E59
:105160004EEAC37E18EB0E0E56EB530EBDD518EB70
:1051700002085E417F1C55F10005B6E74FF480152B
:105180004FF000074FF000064FF00008ADE7F0BC0D
:105190004FF0000001F1C04101F00041BDE8008185
:1051A00011EA0C1F0CEA131500D00CE013EA0C1FD7
:1051B00000F025804FF00000F0BC81EA030101F00F
:1051C0000041BDE80081F0BCBDE8004181EA030177
:1051D00000F06CBAF0BCBDE8004170B500F018FA00
:1051E000097EFC3E00F007B881EA03014FF00000A1
:1051F00001F00041704781EA030100F057BAF0BCAA
:10520000BDE800414FF0000021497047FFFDFBF968
:10521000F7F5F4F2F0EEEDEBE9E8E6E4E3E1E0DEE9
:10522000DDDBDAD8D7D5D4D3D1D0CFCDCCCBCAC85B
:10523000C7C6C5C4C2C1C0BFBEBDBCBBBAB9B8B782
:10524000B6B5B4B3B2B1B0AFAEADACABAAA9A8A875
:10525000A7A6A5A4A3A3A2A1A09F9F9E9D9C9C9B43
:105260009A999998979796959594939392919190EE
:105270008F8F8E8E8D8C8C8B8B8A8989888887877F
:105280008685858484838382828181800000FF07F4
:105290000000F87F4FEA41034FEA5353A3F58063C0
:1052A000D3F11E03C8BFD3F1210C0CDD4FF0004237
:1052B00042EAC12242EA505232FA03FC8CEAE17C13
:1052C000ACEBE1707047102BC4BF0020704703F5B2
:1052D000787CBCF1FF3F04D06FF0004282EA2100ED
:1052E000704770B500F094F949922480002070470F
:1052F000F2E700004FEA1153A3F58063D3F11E03D8
:10530000A8BFD3F1200C08DB4FF0004242EAC122D3
:1053100052EA505232FA03F0704709420BD4102B74
:10532000C4BF0020704703F5787CBCF1FF3F05D077
:105330004FF0FF3070474FF00000704770B500F03D
:1053400067F900BF4992248000207047F0E710F011
:10535000004248BF4042B0FA80F310FA03F10AD08D
:10536000C3F11D0303F580634FEA415002EB035282
:1053700002EBD12170474FF0000070477FEAE172E5
:1053800002D1101A62EB0101B1FA81F30B3B24D375
:10539000994012D1B0FA80F310FA03F108BF7047B8
:1053A000C3F11D0303F5406303EBC2234FEAD1228F
:1053B0004FEA415002EB03517047C3F1200C20FA31
:1053C0000CFC9840C3F1320303F5406303EBC223A6
:1053D00041EA0C0101EB0351704710B5C3F1320CE7
:1053E000C3F10004C4F1200E0CF5406C0CEBC2229A
:1053F00001FA0EFC21FA04F100FA0EF3E040BDE8D8
:10540000104040EA0C0001EB025138BF7047401CCD
:1054100041F100015B0008BF20F001007047B0FAC5
:1054200080F310FA03F10AD0C3F11D0303F5806382
:105430004FEA41504FEA035202EBD12170474FF03F
:105440000000704751EA030C17D41CF5801F58BFA9
:10545000BCF5801F00F10680994218BF704708BF55
:105460009042704707D711F5801F58BF13F5801F72
:1054700019D499427047894270471CF5801F08D59E
:10548000BCF5801FF7D58B4218BF704708BF82421A
:1054900070474FF4001C1CEB410F38BF1CEB430F4F
:1054A00001D28B42704770B500F0B2F892244900E7
:1054B0004FF000514FF08053FFF788BDDFF848C12F
:1054C00070B51CEA111E1EBF1CEA13159EEA0C0FD4
:1054D00095EA0C0F00F06F8081EA030423EA4C1375
:1054E0004EEAD47E21EA4C1141F4801143F480133A
:1054F000AE44A1FB024CA0FB0365AEF17F7E3619E2
:1055000055EB0C05A1FB034C4CF10003A0FB021C66
:1055100016EB0C06654153F10003094218BF46F033
:10552000010613F4007F0BD14FEA03314FEA053037
:10553000340341EA155140EA16506FF003020AE0C5
:105540004FEAC3214FEAC520F40241EA555140EA2F
:1055500056506FF0020202EB2E4201EB025585EA33
:10556000CE710AD05FEA440C18BF24F0004450F119
:10557000000041F1000120EAD47040F2FE7C624557
:1055800000D270BDA84214BF4FF080444FF0404499
:10559000002E08BF0024BEF1806FA8BFA1F1C0415A
:1055A000BDE8704080F282804FF0000001F1C04100
:1055B00001F0004170479EEA0C0F0CEA131518BF6A
:1055C00095EA0C0F06D04FF0000081EA030E0EF0B2
:1055D000004170BD00F01CF88900013E00F007B8E2
:1055E00000F009B84FEA430C5FEA5C5C08D081EA3E
:1055F000030100F05BB84FEA410C5FEA5C5CF6D156
:105600004FF00000014970470000FF070000F87FDD
:105610000EF1020E2EF0030E5EF8046B364205D436
:10562000012A43EB030515F5001F12D8012841EBB1
:10563000010C1CF5001F0CD80ED14FEAD17C15F5DA
:10564000001F0CEB4C0C0CF1020C08BF4CEBD37C94
:1056500004E04FF0080C01E04FEAD37C0CEB4C0562
:1056600026FA05F606F00706B6F1040C06D20EEB94
:10567000860CBDE870404CF0010C6047DFE80CF090
:10568000090B02024FF000414FF00000A1F500218C
:1056900070BD19461046012851EB010418BFD4F51E
:1056A000001484BF002001F0004170BD0808A0F57F
:1056B00000114FEA3101704753EA010C17D41CF571
:1056C000801F58BFBCF5801F00F106808B4218BFB9
:1056D000704708BF8242704707D713F5801F58BF35
:1056E00011F5801F19D48B4270479B4270471CF5FF
:1056F000801F08D5BCF5801FF7D5994218BF7047A9
:1057000008BF904270474FF4001C1CEB430F38BF9A
:105710001CEB410F01D2994270470FB40CBC03BC83
:10572000FFF7C1BE91EA030F10B581F000413FF5CC
:10573000A5AB83F0004300F0EFB800002DE9F04185
:1057400001F5801CBCF5001FC0F2C3804FEA115C5C
:1057500021EA0C510CF1FD0C41F480115FEA5C0C64
:105760000CF5C07C01D3400049413DA4890241EAC7
:10577000905187028E0E0A0CA45D04FB04F602FB16
:1057800006F6C6F14046A4FB0662F60D46EA42263E
:1057900006FB06F4A4FB01235242C3F1404338BF89
:1057A0005B1EA6FB02420024E6FB0324D20B42EA66
:1057B0004446A6FB0623A1FB02E2A3FB07E4A418D0
:1057C0004FF0000252F10002E3FB01426442C2F1D9
:1057D000404E38BFAEF1010EA6FB04234FF000028D
:1057E000E6FB0E32A2FB03464FF00004B61954F15B
:1057F0000004E2FB0264A1FB06E6A4FB07E816EB4B
:1058000008064FF0000858F10008E4FB01687642F2
:10581000C8F1405838BFA8F10108A2FB06E4A3FB79
:1058200008E52D194FF0000454F10004E2FB085480
:10583000A1FB05E6A7FB04E818EB06084FF00006FD
:1058400056F10006E1FB048618F1200556F100062A
:10585000A809A8F11B08B10908F03F08B8F10A0F20
:1058600040EA86601CD901EB0C51BDE8F08100BF15
:10587000FCF5EEE8E2DDD8D3CFCBC7C3C0BDB9B6E7
:10588000B4B1AEACA9A7A5A3A19F9D9B9A989695EC
:105890009392908F8D8C8B89888786858483828173
:1058A000A0FB006800FB01F208EB4208B8EB872878
:1058B00007D5341858EB0104D5D5401C51F100012F
:1058C000D1E7341A78EB0104CDD4401E71F1000108
:1058D000C9E75FEA4C0C5FEA9C5C0DD105D34FF041
:1058E000000001F00041BDE8F081BDE8F04170B575
:1058F000FFF78EFE6DDBFFBEBDE8F0414FF000000C
:10590000004970470000F87F10B591EA030F48BFC7
:1059100083F000433FF5B2AA841A71EB030C07D25F
:1059200012198CF0004C43EB0C03001B61EB0C01D3
:10593000DFF8A4E14FEA1154A4EB135C1EEA430F15
:1059400018BF9EEA445F00F0B08023EA6E03524223
:1059500021EA0451C3EB6E0338BF5B1EDCF1200E5D
:1059600025D322FA0CFE10EB0E0043FA0CFE41EB9D
:105970000E01CCF1200E03FA0EFE10EB0E0051F1D9
:105980000001CCF1200E29D412FA0EF201EB0451E1
:10599000BDE8104058BF7047401C1CBFB2F1004F1B
:1059A000704700280CBF491C20F00100704712EB23
:1059B000020E43EB030218BF4FF0010E4EEA420203
:1059C000ACF1200CDCF11E0E54D943FA0CFE10EBA6
:1059D0000E0051F1FF31CCF11E0ED5D50EF1010EA6
:1059E00012FA0EFE404141EB010101EB445C5FEA1B
:1059F0005C5C10D910EBDE7001EB045138BFBEF1D6
:105A0000004FBDE8104018BF704700280CBF491C6C
:105A100020F00100704730D24FEAD42C11F500116C
:105A200024F400641BD0B1FA81F20B3AA41AA41E2C
:105A3000D2F12003914030FA03F31943904001EB77
:105A4000CC71002C01EB0451BDE81040A8BF704799
:105A500001F1C0414FF0000001F000417047B0FA81
:105A600080F310FA03F100D110BDE41A173C480589
:105A7000C90AE4E701EB045110BD491001EB0451E0
:105A8000BDE810404FEA300002E04FF000017047DF
:105A90004A0008BF0042F8D0B2F5001F28BF704787
:105AA00001F000414FF0000070479EEA445F07D0CC
:105AB00011EA5E0FBDE8104004BF002100207047CE
:105AC000BDE8104070B5FFF7A3FD00BF40DFF63E14
:105AD00083F00041104670470000E0FF43004FEAAA
